:0200000260009C
:10000000646D76780000060014060B0000000020E6
:100010005013002050130020B85B00202D00060074
:080020005D300A002900060012
:100028000020704708B5024B1860FFF7F9FF08BDBC
:10003800501300200020704708B5024B19684A6821
:10004800904708BD5013002008B5024B1A68936802
:10005800984708BD5013002008B5024B1868C168BE
:10006800884708BD5013002008B5024B186801697D
:10007800884708BD5013002008B5024B19684A6923
:10008800904708BD5013002008B5024B18688169D5
:10009800884708BD5013002008B5024B1868C1698D
:1000A800884708BD5013002008B5024B1A68136A28
:1000B800984708BD5013002010B5024C2468E46A24
:1000C800A04710BD5013002010B5024C2468246BC3
:1000D800A04710BD5013002010B5024C2468E46FEF
:1000E800A04710BD5013002037B5034C2568069C67
:1000F8000094AC6BA0473EBD5013002037B5034CAD
:100108002568069C00946C6BA0473EBD50130020E8
:1001180037B5054C25689DF818400094079C019454
:10012800EC6BA0473EBD00BF5013002037B5034C11
:100138002568069C00942C6CA0473EBD50130020F7
:100148000FB410B5ADF5047D869991B10D4C87AA11
:1001580004A8019204F0EDFA236803A99A6A02A898
:10016800904720680399C46F029804AA0023A04707
:1001780001E06FF005000DF5047DBDE8104004B006
:10018800704700BF5013002008B5024B1A68536A25
:10019800984708BD5013002008B5024B1A68936AA7
:1001A800984708BD5013002008B5024B1B685B6CCC
:1001B800984708BD5013002008B5024B1B689B6C7C
:1001C800984708BD5013002008B5024B1868C16C49
:1001D800884708BD5013002008B5024B1868016D08
:1001E800884708BD5013002008B5024B1A68536DA4
:1001F800984708BD5013002008B5024B1A68936D44
:10020800984708BD5013002008B5024B1968CA6DFD
:10021800904708BD5013002008B5024B19680A6EB4
:10022800904708BD5013002008B5024B19684A6E64
:10023800904708BD5013002008B5024B19688A6E14
:10024800904708BD5013002008B5024B1A68D36EBA
:10025800984708BD5013002008B5024B1A68136F61
:10026800984708BD5013002008B5024B1A68536F11
:10027800984708BD5013002008B5024B1A68936FC1
:10028800984708BD5013002008B5034B1968D1F8EA
:100298008020904708BD00BF5013002010B5034CC4
:1002A8002468D4F88440A04710BD00BF5013002034
:1002B80010B5034C2468D4F88840A04710BD00BF8F
:1002C8005013002008B5034B1A68D2F88C309847B1
:1002D80008BD00BF5013002008B5034B1868D0F8BC
:1002E8009410884708BD00BF5013002008B5034B81
:1002F8001968D1F89020904708BD00BF501300201E
:1003080008B5034B1B68D3F89830984708BD00BF61
:100318005013002008B5034B1A68D2F89C30984750
:1003280008BD00BF5013002030B5084C85B02568C3
:100338009DF820400094099C01949DF8284002945F
:10034800D5F8A040A04705B030BD00BF501300202D
:1003580008B5034B1B68D3F8A430984708BD00BF05
:100368005013002008B5034B1A68D2F8A8309847F4
:1003780008BD00BF5013002008B5034B1968D1F819
:10038800AC20904708BD00BF5013002037B5044C7F
:100398002568069C0094D5F8B040A0473EBD00BF34
:1003A8005013002008B5034B1B68D3F8B4309847A6
:1003B80008BD00BF5013002008B5034B1968D1F8D9
:1003C800B820904708BD00BF5013002008B5034B64
:1003D8001968D1F8BC20904708BD00BF5013002011
:1003E80008B5034B1A68D2F8C030984708BD00BF5B
:1003F8005013002008B5034B1968D1F8C420904762
:1004080008BD00BF5013002008B5034B1868D0F88A
:10041800C810884708BD00BF5013002008B5034B1B
:100428001968D1F8CC20904708BD00BF50130020B0
:1004380008B5034B1968D1F8D020904708BD00BF14
:100448005013002008B5034B1868D0F8D41088471B
:1004580008BD00BF5013002008B5034B1868D0F83A
:10046800D810884708BD00BF5013002008B5034BBB
:100478001868D0F8DC10884708BD00BF501300206A
:1004880008B5034B1968D1F8E020904708BD00BFB4
:100498005013002008B5034B1968D1F8E4209047A1
:1004A80008BD00BF5013002008B5034B1968D1F8E8
:1004B800E820904708BD00BF5013002008B5034B43
:1004C8001868D0F8EC10884708BD00BF501300200A
:1004D80008B5034B1968D1F8F020904708BD00BF54
:1004E8005013002084B070B586B00AAC84E80F00C1
:1004F800084B0EAD1E680FCD6C460FC428680AA9BC
:1005080020600FC9D6F8F840A04706B0BDE8704093
:1005180004B070475013002008B5034B1968D1F890
:10052800F420904708BD00BF5013002010B5034CBD
:100538002468D4F8FC40A04710BD00BF5013002029
:1005480008B5034B1968D1F80021904708BD00BFD2
:100558005013002084B037B507AC84E80E00064B72
:100568000A991D68009194E80E00D5F8A843A047A1
:10057800BDE83E4004B070475013002008B5034B57
:100588001868D0F80411884708BD00BF5013002030
:1005980008B5034B1968D1F80821904708BD00BF7A
:1005A8005013002008B5034B1968D1F80C21904767
:1005B80008BD00BF5013002008B5034B1A68D2F8D5
:1005C8001031984708BD00BF5013002008B5034BF1
:1005D8001968D1F88823904708BD00BF5013002040
:1005E80008B5034B1A68D2F81431984708BD00BF04
:1005F8005013002008B5034B1B68D3F818319847EF
:1006080008BD00BF5013002008B5034B1A68D2F884
:100618001C31984708BD00BF5013002008B5034B94
:100628001968D1F82021904708BD00BF5013002059
:1006380008B5034B1B68D3F82431984708BD00BFA1
:100648005013002008B5034B1B68D3F8283198478E
:1006580008BD00BF5013002008B5034B1B68D3F832
:100668002C31984708BD00BF5013002008B5034B34
:100678001968D1F83021904708BD00BF50130020F9
:1006880008B5034B1A68D2F83431984708BD00BF43
:100698005013002008B5034B1968D1F8382190474A
:1006A80008BD00BF5013002008B5034B1A68D2F8E4
:1006B8003C31984708BD00BF5013002008B5034BD4
:1006C8001A68D2F84031984708BD00BF501300207F
:1006D80008B5034B1A68D2F84431984708BD00BFE3
:1006E8005013002008B5034B1A68D2F848319847D0
:1006F80008BD00BF5013002008B5034B1868D0F898
:100708008C13884708BD00BF5013002008B5034B61
:100718001968D1F84C21904708BD00BF501300203C
:1007280008B5034B1A68D2F85031984708BD00BF86
:100738005013002037B5054C2568069C0094079C8B
:100748000194D5F85441A0473EBD00BF5013002086
:1007580008B5034B1B68D3F85831984708BD00BF4C
:100768005013002008B5034B1A68D2F85C3198473B
:1007780008BD00BF5013002010B5034C2468D4F8FE
:100788006041A04710BD00BF5013002008B5034BBF
:100798001968D1F86421904708BD00BF50130020A4
:1007A80008B5034B1868D0F86811884708BD00BF22
:1007B8005013002008B5034B1868D0F86C1188470F
:1007C80008BD00BF5013002008B5034B1868D0F8C7
:1007D8007011884708BD00BF5013002008B5034BAF
:1007E8001968D1F87421904708BD00BF5013002044
:1007F80010B5034C2468D4F87841A04710BD00BF59
:100808005013002037B5054C2568069C0094079CBA
:100818000194D5F87C41A0473EBD00BF501300208D
:1008280008B5034B1968D1F88021904708BD00BF6F
:100838005013002008B5034B1968D1F8842190475C
:1008480008BD00BF5013002008B5034B1868D0F846
:100858008811884708BD00BF5013002008B5034B16
:100868001868D0F88C11884708BD00BF50130020C5
:1008780008B5034B1868D0F89011884708BD00BF29
:100888005013002008B5034B1868D0F89411884716
:1008980008BD00BF5013002008B5034B1868D0F8F6
:1008A8009811884708BD00BF5013002008B5034BB6
:1008B8001968D1F89C21904708BD00BF501300204B
:1008C80008B5034B1968D1F8A021904708BD00BFAF
:1008D8005013002008B5034B1B68D3F8A431984780
:1008E80008BD00BF5013002008B5034B1968D1F8A4
:1008F800A821904708BD00BF5013002010B5034C35
:100908002468D4F8AC41A04710BD00BF50130020A4
:1009180008B5034B1B68D3F8B031984708BD00BF32
:100928005013002008B5034B1A68D2F8B431984721
:1009380008BD00BF5013002008B5034B1B68D3F84F
:10094800B831984708BD00BF5013002008B5034BC5
:100958001B68D3F8BC31984708BD00BF501300206E
:1009680008B5034B1A68D2F8C031984708BD00BFD4
:100978005013002010B5034C2468D4F8C441A04794
:1009880010BD00BF5013002037B5044C9DF8185017
:1009980024680095D4F8C841A0473EBD50130020F4
:1009A80008B5034B1B68D3F8CC31984708BD00BF86
:1009B8005013002008B5034B1B68D3F8D031984773
:1009C80008BD00BF5013002008B5034B1B68D3F8BF
:1009D800D431984708BD00BF5013002008B5034B19
:1009E8001B68D3F8D831984708BD00BF50130020C2
:1009F80008B5034B1968D1F8DC21904708BD00BF42
:100A08005013002008B5034B1968D1F8E02190472E
:100A180008BD00BF5013002008B5034B1868D0F874
:100A2800A413884708BD00BF5013002008B5034B26
:100A38001968D1F8E421904708BD00BF5013002081
:100A480008B5034B1968D1F8E821904708BD00BFE5
:100A58005013002008B5034B1968D1F8EC219047D2
:100A680008BD00BF5013002008B5034B1968D1F822
:100A7800F021904708BD00BF5013002008B5034B74
:100A88001968D1F8F421904708BD00BF5013002021
:100A980008B5034B1968D1F8F821904708BD00BF85
:100AA8005013002008B5034B1868D0F8FC1188478C
:100AB80008BD00BF5013002010B5034C2468D4F8BB
:100AC8000042A04710BD00BF5013002008B5034BDB
:100AD8001968D1F80422904708BD00BF50130020C0
:100AE80008B5034B1A68D2F80832984708BD00BF0A
:100AF8005013002008B5034B1968D1F80C22904711
:100B080008BD00BF5013002008B5034B1A68D2F87F
:100B18001032984708BD00BF5013002030B5074C6D
:100B280085B02568089C0094099C01940A9C02944D
:100B3800D5F81442A04705B030BD00BF50130020BF
:100B480008B5034B1968D1F81822904708BD00BFB3
:100B58005013002008B5034B1B68D3F81C32984784
:100B680008BD00BF5013002008B5034B1968D1F821
:100B78002022904708BD00BF5013002008B5034B42
:100B88001968D1F82422904708BD00BF50130020EF
:100B980008B5034B1968D1F82822904708BD00BF53
:100BA8005013002008B5034B1968D1F82C22904740
:100BB80008BD00BF5013002008B5034B1968D1F8D1
:100BC8003022904708BD00BF5013002008B5034BE2
:100BD8001A68D2F83432984708BD00BF5013002075
:100BE80008B5034B1968D1F83822904708BD00BFF3
:100BF8005013002008B5034B1968D1F83C229047E0
:100C080008BD00BF5013002008B5034B1968D1F880
:100C18004022904708BD00BF5013002037B5044C50
:100C28002568069C0094D5F84442A0473EBD00BF05
:100C38005013002008B5034B1968D1F84822904793
:100C480008BD00BF5013002008B5034B1968D1F840
:100C58004C22904708BD00BF5013002008B5034B35
:100C68001968D1F85022904708BD00BF50130020E2
:100C780008B5034B1B68D3F85432984708BD00BF2A
:100C88005013002008B5034B1968D1F85822904733
:100C980008BD00BF5013002037B5044C2568069CDA
:100CA8000094D5F85C42A0473EBD00BF5013002019
:100CB80008B5034B1968D1F86022904708BD00BFFA
:100CC8005013002008B5034B1968D1F864229047E7
:100CD80008BD00BF5013002037B5044C2568069C9A
:100CE8000094D5F86842A0473EBD00BF50130020CD
:100CF80008B5034B1B68D3F86C32984708BD00BF92
:100D08005013002008B5034B1B68D3F8703298477E
:100D180008BD00BF5013002008B5034B1968D1F86F
:100D28007422904708BD00BF5013002008B5034B3C
:100D38001A68D2F87832984708BD00BF50130020CF
:100D480008B5034B1968D1F87C22904708BD00BF4D
:100D58005013002008B5034B1968D1F8802290473A
:100D680008BD00BF5013002008B5034B1B68D3F81B
:100D78008432984708BD00BF5013002008B5034BC4
:100D88001868D0F88812884708BD00BF50130020A3
:100D980008B5034B1A68D2F88C32984708BD00BFD3
:100DA8005013002008B5034B1A68D2F87C339847D3
:100DB80008BD00BF5013002008B5034B1A68D2F8CD
:100DC8009032984708BD00BF5013002008B5034B68
:100DD8001968D1F89422904708BD00BF501300202D
:100DE80037B5044C9DF8185024680095D4F89842FB
:100DF800A0473EBD5013002037B5054C25689DF827
:100E080018400094079C0194D5F89C42A0473EBD29
:100E18005013002037B5054C2568069C00949DF8B2
:100E28001C400194D5F8A042A0473EBD50130020B5
:100E380037B5054C2568069C00949DF81C40019424
:100E4800D5F88043A0473EBD5013002037B5044C69
:100E58002568069C0094D5F8A442A0473EBD00BF73
:100E68005013002037B5054C25689DF818400094AC
:100E7800079C0194D5F8A842A0473EBD5013002016
:100E880037B5054C2568069C0094079C0194D5F855
:100E9800AC42A0473EBD00BF5013002008B5034B2D
:100EA8001A68D2F8B032984708BD00BF5013002026
:100EB80008B5034B1968D1F8B422904708BD00BFA4
:100EC8005013002030B5074C85B02568089C009465
:100ED8009DF8244001940A9C0294D5F8B842A04792
:100EE80005B030BD5013002037B5054C2568069C69
:100EF80000949DF81C400194D5F8BC42A0473EBD23
:100F08005013002030B5084C85B02568089C009423
:100F1800099C01940A9C02949DF82C400394D5F8EE
:100F2800C042A04705B030BD5013002008B5034BA0
:100F38001A68D2F8C432984708BD00BF5013002081
:100F480010B5034C2468D4F8C842A04710BD00BFB0
:100F58005013002008B5034B1A68D2F8CC329847D2
:100F680008BD00BF5013002008B5034B1968D1F81D
:100F7800D022904708BD00BF5013002008B5034B8E
:100F88001968D1F8D422904708BD00BF501300203B
:100F980010B5034C2468D4F8D842A04710BD00BF50
:100FA8005013002008B5034B1968D1F8DC2290478C
:100FB80008BD00BF5013002008B5034B1B68D3F8C9
:100FC800E032984708BD00BF5013002010B5034C0D
:100FD8002468D4F8E442A04710BD00BF5013002095
:100FE80010B5034C2468D4F8E842A04710BD00BFF0
:100FF8005013002008B5034B1A68D2F8EC32984712
:1010080008BD00BF5013002008B5034B1A68D2F87A
:10101800F032984708BD00BF5013002008B5034BB5
:101028001A68D2F8F432984708BD00BF5013002060
:1010380008B5034B1A68D2F8F832984708BD00BFC4
:101048005013002008B5034B1A68D2F8FC329847B1
:1010580008BD00BF5013002008B5034B1A68D2F82A
:101068000033984708BD00BF5013002008B5034B54
:101078001B68D3F80433984708BD00BF50130020FD
:1010880008B5034B1A68D2F80833984708BD00BF63
:101098005013002008B5034B1B68D3F80C3398474E
:1010A80008BD00BF5013002008B5034B1968D1F8DC
:1010B8001023904708BD00BF5013002008B5034B0C
:1010C8001968D1F81423904708BD00BF50130020B9
:1010D80008B5034B1968D1F81823904708BD00BF1D
:1010E8005013002010B5034C2468D4F81C43A047C3
:1010F80010BD00BF5013002037B5044C2568069C6E
:101108000094D5F82043A0473EBD00BF50130020EF
:1011180008B5034B1968D1F82423904708BD00BFD0
:101128005013002008B5034B1968D1F828239047BD
:1011380008BD00BF5013002008B5034B1968D1F84B
:101148002C23904708BD00BF5013002008B5034B5F
:101158001B68D3F83033984708BD00BF50130020F0
:1011680008B5034B1968D1F83423904708BD00BF70
:101178005013002008B5034B1A68D2F83833984743
:1011880008BD00BF5013002008B5034B1868D0F8FD
:101198003C13884708BD00BF5013002008B5034B17
:1011A8001868D0F84013884708BD00BF50130020C6
:1011B80008B5034B1B68D3F84433984708BD00BFF4
:1011C8005013002010B5034C2468D4F84843A047B6
:1011D80010BD00BF5013002008B5034B1968D1F8A3
:1011E8005023904708BD00BF5013002008B5034B9B
:1011F8001B68D3F85433984708BD00BF501300202C
:1012080008B5034B1968D1F84C23904708BD00BFB7
:101218005013002008B5034B1968D1F8582390479C
:1012280008BD00BF5013002008B5034B1B68D3F856
:101238005C33984708BD00BF5013002008B5034B26
:101248001B68D3F8A033984708BD00BF501300208F
:1012580008B5034B1B68D3F86033984708BD00BF37
:101268005013002008B5034B1B68D3F86433984724
:1012780008BD00BF5013002008B5034B1868D0F80C
:101288006813884708BD00BF5013002008B5034BFA
:101298001868D0F86C13884708BD00BF50130020A9
:1012A80008B5034B1868D0F87013884708BD00BF0D
:1012B8005013002008B5034B1868D0F874138847FA
:1012C80008BD00BF5013002008B5034B1868D0F8BC
:1012D8007813884708BD00BF5013002008B5034B9A
:1012E8001868D0F88413884708BD00BF5013002041
:1012F80008B5034B1B68D3F89033984708BD00BF67
:101308005013002008B5034B1A68D2F89433984755
:1013180008BD00BF5013002008B5034B1968D1F869
:101328009823904708BD00BF5013002037B5054CDF
:101338002568069C0094079C0194D5F89C43A04717
:101348003EBD00BF501300207FB501A96846FEF7D7
:1013580023FF03A902A8FEF74FFF05A904A8FEF77B
:1013680073FF049B009958088142049006D20199A2
:10137800059A914204D38B1A02990193081A009096
:101388009DE80300054A0023FEF7A6FE9DE803003A
:10139800FEF7FAFE002007B000BD00BF04D20A0025
:1013A8001FB501A96846FEF7F7FE03A902A8FEF7D4
:1013B8004BFF039901984218511EFEF775FE002055
:1013C80005B000BD1FB500248DF8040003A902A8CC
:1013D8008DF80540FEF7E0FE0298039901AA23461E
:1013E800FEF77AFE204604B010BD10B5002A08BFEB
:1013F8000B460446A1F13002D0B26CB1092806D9D7
:10140800A1F16102192A02D94139192906D81846C9
:10141800FFF7D8FF002010BD0928F7E74FF0FF308D
:1014280010BD20385F288CBF4FF0FF300020704778
:1014380080F080003C288CBF4FF0FF3000207047C0
:1014480037B50D46044601A96846FEF7D5FE064B9A
:10145800019A186C2918914203D82046FEF794FE89
:1014680001E04FF0FF303EBD14310A0037B50546A4
:101478000C46684601A9FEF78FFE064A0198116CD2
:10148800009B884228BFC1EB00002B602060002031
:101498003EBD00BF14310A002DE9F3410E46054652
:1014A80001A968461F469046FEF7A6FE074B1C6C2E
:1014B8003119019CA14205D8284642463B46FEF711
:1014C8000BFE01E04FF0FF30BDE8FC8114310A004B
:1014D8002DE9F0418AB0054614460E46182200212F
:1014E80004A803F0F7F801A96846FEF785FE03A9EA
:1014F80002A8FEF7A9FE009FDDF808807B00B3FB79
:10150800F8F08442C8BFC4B22246314604A803F0AA
:10151800D8F803992846691808FB04F4FEF7C4FDB7
:10152800A7EB54025008294632460023FEF7D4FDA3
:101538000AB0BDE8F0812DE9F04F89B080460591E9
:1015480001200DF11F011F460392FEF77DFD9DF856
:101558001F000021FEF778FD129B0025C8EB030948
:10156800BD4236D205F10800B842029006D9C5EB53
:10157800070A5FFA8AFACDF804A001E00821019170
:10158800039A02EB080404944446049B9C421CD032
:10159800059E19F804A005EB060B5E460199CBEBF6
:1015A800060088420FDA9DF81F20012A0AF001027E
:1015B800314608BF82F001022046FEF7FDFD4FEAE2
:1015C8005A0A0136EAE70134DFE7039DA944029D80
:1015D800C6E7002009B0BDE8F08F07B5044B6420CA
:1015E8000093022108220C23FFF7A5FF0EBD00BFC0
:1015F80068300A0037B5002304460B60036001A871
:101608000D46FEF765FF70B9019909B1226800E03F
:1016180001220029226004DA21F00043012101930C
:101628002160019A2A603EBD1FB501A96846FEF7F0
:10163800B3FD03A902A8FEF707FE0A4B0298196C2E
:10164800814206D900200139FEF72EFD0C2001F059
:10165800C3F8FFF7C2FF9DE80300FEF795FD05B04C
:1016680000BD00BF14310A0013B5FFF7DDFF01A963
:101678006846FEF7C1FD054B01991C6C2046FEF734
:1016880013FD00202146FEF77FFD1CBD14310A0022
:101698002DE9F04F814600F1010501EB401089B0BA
:1016A800C469D0F8188005920F46069304904FF04D
:1016B800000AC24580F28C8014F80A00421ED1B29A
:1016C800FD2904EB0A0B02D90AF1010AF1E7059B8F
:1016D8009D4202D14FF0FF3080E000F020066A0101
:1016E800F0B2B91810B94FF0FF3300E000236801D9
:1016F8000B6147F800B09BF8002002F01F011F297A
:1017080007EB000611D10AF103000023824514F803
:101718000A20DFD00AF1010AC245DBD014F90A1009
:1017280013431B020029F1DB00E0002314F80A0030
:101738000AF101010343414504EB0A0C7361C9D066
:1017480062187260605C010600F07F030AF1020211
:101758001DD5042BBEDCC2EB08018B42BADC4FF06E
:10176800000A0293CDF804A002980CF1010C60B1B4
:101778000299481E4FEAC00A9CF801100290504690
:101788008140019808430190EEE7D218019BC2EB13
:1017980008018B429EDC02EB030AA0183169B36191
:1017A80004EB0A02CBEB0203C6F80C90F061B360BD
:1017B80061B90698C30609D428463946059A069B96
:1017C800FFF766FF002809DB3269AD18013570E7BD
:1017D800C9EB0505049B013D1D61002009B0BDE86A
:1017E800F08F2DE9F043984685B040F601539842B2
:1017F80007460D4691460C9C24D03A46294968462E
:1018080002F0A6FF684602F0C9FF0646694632465E
:10181800254800F02FFF276800226846314608EB6C
:10182800070303F085FE20687F2D00EB660020602B
:1018380020DD2A12561C66F07F018DF808102B4611
:1018480000270CE0194800F015FF0026AE42D4DA54
:1018580019F80610164800F00DFF0136F6E70DF1ED
:10186800080E0EEB0201C91B01374B701B12B74261
:10187800F5DB02E08DF808500026771C02A93A46ED
:10188800404402F01EFF2668B81920602A464044EA
:10189800494602F016FF226855192560002005B058
:1018A800BDE8F0839FFF0A0085890A009B890A002A
:1018B800958B0A0030B5037803F01F031F2B01D066
:1018C800012307E00223C41814F9014C002C01DAA3
:1018D8000133F8E702B1136049B1047801229A4252
:1018E80004DA855C013245EA0424F8E70C6000203C
:1018F80030BD2DE9F341002405461F468846019472
:101908001646CAB1A34217DD104621469A0002F0D6
:10191800E1FE2B7893B1B8F1000F0FDDBC420DD07A
:10192800284606EB840101AAFFF7C4FF0198013499
:101938002D18C0EB0808ECE74FF0FF342046BDE84F
:10194800FC812DE9F041069D884614461E4607464F
:1019580018B94FF0FF30BDE8F081002AF9D0002B0C
:10196800F7D00378002BF4D000211046720102F062
:10197800B1FE0020E761C4F81880214632462B46A4
:10198800FFF786FE002806DB15F0010003D0A06AE9
:101998004045DED10020BDE8F08170B520EAE07452
:1019A800601CA2B102EB44142469002C11DB261838
:1019B800B0420EDA02EB401465698D420AD0022B60
:1019C80003D12469002CC8BF00190130F0E7104684
:1019D80070BD002070BD031E30B50EDD79B10C69F5
:1019E800581C01EB4313A04207DC01EB4012556978
:1019F8005A69954204D00130F5E7002030BD084609
:101A080030BDF0B50546002004468C4223DA2E5D31
:101A1800771EFFB2FD2F01D90134F6E798421BD09B
:101A280006F01F061F2E0ED104F1040C00262F5DB0
:101A38000134644510D08C420ED03E432F573602F5
:101A4800002FF4DB00E000262F5D3E4342F82060C3
:101A580001340130D9E7F0BD4FF0FF30F0BD2DE97A
:101A6800F047DEB0054604A80191FFF7C3FA0199D3
:101A7800474800F0FFFD0421012304A80DEB0102F3
:101A8800FFF7BFFF012804D0424800F0F3FD00240F
:101A980076E00199404800F0EDFD04A8FF214FF4DD
:101AA800B47202F017FE2846FEF7F4FD88B1294605
:101AB8003A4800F0DFFD28463949FEF7A5FD041E27
:101AC8005EDB04A94FF4B472FEF7BCFD2046FEF7B6
:101AD800A5FD03A92846FEF7D3FD039A30494FF424
:101AE800B4732846B2FBF3FAFEF78EFD041E47DBFB
:101AF800002555453FDA4FF4B47606FB05F8204635
:101B080041460022FEF7A8FD0746002838D10422E6
:101B1800204603A9FEF78CFD0428814630D12A46C9
:101B28000399204800F0A6FD039904A8FFF762FA7C
:101B3800494603AA012304A8FFF763FF0199039A02
:101B4800914216D1012814D12A46174800F092FD77
:101B5800204641463A46FEF77FFD88B9FF213246C6
:101B680004A802F0B7FD204604A93246FEF76AFD34
:101B780001E00135BDE72046FEF750FD002004E0F6
:101B88002046FEF74BFD4FF0FF305EB0BDE8F08712
:101B9800A9890A00BD890A00D2890A00F0890A00C9
:101BA800038A0A00058A0A00218A0A002DE9F04FF3
:101BB8000C462746DDB049690646764800F05AFDCE
:101BC80057F8141F02A8FFF715FA0421012302A8E9
:101BD8003A46FFF716FF012804D06F4800F04AFD87
:101BE8000025C8E061696D4800F044FD02A8FF21A6
:101BF8004FF4B47202F06EFD3046FEF74BFD90B123
:101C08003146674800F036FD30466649FEF7FCFC71
:101C1800051EC0F2B08002A94FF4B472FEF712FD9F
:101C28002846FEF7FBFC01A93046FEF729FD019A7C
:101C38005C494FF4B4733046B2FBF3F8FEF7E4FCAA
:101C4800051EC0F298800026464580F29A804FF41F
:101C5800B47303FB06FA284651460022FEF7FCFC43
:101C68008146002840F087800422284601A9FEF713
:101C7800DFFC042883467ED1324601994A4800F0A9
:101C8800F9FC019902A8FFF7B5F9594601AA012301
:101C980002A8FFF7B6FE6169019A91420ED10128A8
:101CA8000CD1284651464A46FEF7D6FC002862D198
:101CB80061693E48324600F0DDFC2AE00136C3E7A0
:101CC8000136464534DA4FF4B47A0AFB06FA284658
:101CD80051460022FEF7C0FC814600284BD1042261
:101CE800284601A9FEF7A4FC042844D132462E4810
:101CF800019900F0BFFC019A531CE1D128465146D6
:101D08004A46FEF7A9FC002835D12948314600F09B
:101D1800B1FC3E68A0690296A6690390E169324663
:101D280004A802F0CEFC284602A906F108021BE02E
:101D38007F2E1BDC4FF4B478284608FB06F10022FE
:101D4800FEF78AFCB8B9FF21424602A802F0C2FC9D
:101D58003868A16902900391A269E16904A802F0B8
:101D6800B0FC284602A94246FEF76CFC2846FEF75E
:101D780055FC00200BE02846FEF750FC4FF0FF30E2
:101D880005E00C48616900F075FC002699E75DB034
:101D9800BDE8F08FA9890A00BD890A00D2890A0026
:101DA800F0890A00038A0A00058A0A00218A0A00C3
:101DB800438A0A00608A0A002DE9F0430D462E4640
:101DC800DDB049690446404800F054FC56F8141F39
:101DD80002A8FFF70FF90421012302A83246FFF7F2
:101DE80010FE012803D0394800F044FC62E069691C
:101DF800374800F03FFCFF214FF4B47202A802F00C
:101E080069FC2046FEF746FC0646002852D12046CB
:101E180001A9FEF735FC019A2E494FF4B473204608
:101E2800B2FBF3F9FEF7F0FB041E44DB4E4542DA41
:101E38004FF4B471204671430022FEF70DFC0746AB
:101E4800002838D10822204602A9FEF7F1FB08280D
:101E580031D10299204801913246DDF80C8000F01A
:101E680009FC019902A8FFF7C5F80421012302A87B
:101E78000DEB0102FFF7C5FD012819D16869019929
:101E8800814215D13246154800F0F4FB42462046FF
:101E980004A9FEF7CDFB404502460CD1A86104A970
:101EA800E86902F00EFC2046FEF7B8FB384607E06A
:101EB8000136BBE700242046FEF7B0FB4FF0FF30A9
:101EC8005DB0BDE8F08300BFA9890A00BD890A009A
:101ED800D2890A00038A0A00058A0A00218A0A00B0
:101EE8002DE9F04F072985B0894600F38B80044619
:101EF80000274F4580F28480264602A856F8141F12
:101F0800FFF778F80421012302A83246FFF779FD8C
:101F1800012872D13E48616900F0ACFB00254FF002
:101F2800C80ADFF8FC800AFB05FA08EB0A0B2A4608
:101F3800DBF8000001900199364800F09BFB0199FD
:101F480002A8FFF757F8042101230DEB010202A8AC
:101F5800FFF757FD6169019B994213D12A462E4824
:101F680000F088FB626942F47F0060613168CBF859
:101F780000100AF10403A2690AF1080048F80320D6
:101F8800404432E00135072DC9D1244800F072FBE6
:101F9800002523491F484FF0C80808FB05F801EB46
:101FA800080ADAF80020019201992A4600F062FB3B
:101FB8000198431C1ED129461A4800F05BFB0025F6
:101FC800A3699D4206D2E3691748595D00F052FBA8
:101FD8000135F5E73168124BCAF80010A06908F11D
:101FE800040208F1080198505818E169A26902F042
:101FF80068FB02E00135072DCBD10137203478E7A3
:10200800002001E04FF0FF3005B0BDE8F08F00BFC1
:10201800D2890A00058A0A00218A0A00608A0A0011
:1020280054130020438A0A00958B0A002DE9FF47C4
:1020380005462C46884603A86969FEF7DBFF54F875
:10204800141F334800F016FB0421012303A822467D
:10205800FFF7D7FC012855D12E48696900F00AFB23
:10206800002426462C4F07EB0409231DD9F800004D
:10207800F9580190324602912848019900F0FAFA7D
:10208800019903A8FEF7B6FF042101230DEB010215
:1020980003A8FFF7B6FC6A69019B9A422CD1012874
:1020A8002AD1E969CB7891F802A04A780878029990
:1020B80003EB0A2A02EB00208A4528BF8A4604F16E
:1020C8000802B9184044524602F0FBFA14486969FC
:1020D800324600F0CFFA0027574508DA0E480319B0
:1020E800D9191048097A00F0C5FA0137F4E74846CB
:1020F800FF21C82202F0EEFA0136C834072EB1D10A
:10210800002001E04FF0FF3004B0BDE8F08700BFC9
:10211800A9890A00D2890A0054130020058A0A00F6
:10212800218A0A00958B0A0010B51548FEF7B2FA05
:10213800F0B1FF214FF4AF62124802F0CBFA104819
:102148001149FEF761FA041E12DD0E494FF4876249
:10215800FEF778FAB0F5876F204607D0FEF75EFAEB
:102168000748FEF783FA4FF0FF3010BDFEF756FA26
:10217800FF214FF4AF62034802F0ACFA002010BD13
:102188008B8A0A0054130020038A0A006FF011009A
:102198007047030A43EA002080B2704700BA7047CC
:1021A800012907D101780A200B0901F00F0200FB71
:1021B80003207047022910D103880A22C3F30310B1
:1021C80003F00F0102FB0011180BC3F3032302FBFA
:1021D8000032642000FB012070470020704737B5AB
:1021E8000023012A019309D10A22B1FBF2F302FB71
:1021F800131141EA0312019202701DE0022A1BD159
:102208006425B1FBF5F20A2305FB1215B5FBF3F4BF
:1022180003FB145545EA04148DF80540B2FBF3F4AA
:1022280003FB14224FF47A73B1FBF3F142EA011273
:102238008DF80420019B038001983EBDFFF7B0BFD5
:10224800FFF7CDBF82B000230129019302D10278A4
:10225800019222E0022906D1017840788DF8041015
:102268008DF8050019E0032909D1017842788378AF
:102278008DF804108DF805208DF806300DE004293E
:102288000BD1017842788378C0788DF804108DF8E6
:1022980005208DF806308DF80700019802B07047C8
:1022A80008B5034610B94FF0FF3008BD0269002A8F
:1022B800F9D000785969FEF775F80028F3D108BD00
:1022C8001FB500230393034610B94FF0FF300CE00D
:1022D8000269002AF9D003A9007800915969DB68DE
:1022E800FEF754F80028F0D1039805B000BDF0B50A
:1022F800061E87B014BF0D460025174600210C2284
:1023080003A802F0E7F9009532483349334B40F20D
:10231800033202F0E9F90024AC4205DA315D3048B5
:1023280002F0E2F90134F7E70A20FEF781F82D48B8
:1023380002F0DAF90A20FEF77BF803AC0820FEF772
:1023480045F8A91D0222601CFFF77AFF264B997BEE
:10235800DA7B187C8DF80F20FF298DF8100001D149
:10236800012300E04B1C8DF8123002203A888DF8CA
:102378000C001E48ADF813202F2109230461002406
:102388008DF811104361FFF78BFF2046013003AA37
:102398000828815C84EA0104F8D114484561066183
:1023A800FFF77EFF0023AB4203D0F05C01334440CB
:1023B800F9E703230D488DF816305C4002220DF131
:1023C80016018DF8174042610161FFF769FF00208F
:1023D80007B0F0BD9E8A0A00B68A0A00C78A0A00BA
:1023E80056B10A00D48A0A000C1A0020CC18002022
:1023F800012810B5094C03D0042801D10B2300E0B3
:10240800082323703220E0602078FDF7B5FF20789C
:102418000349FDF7A7FF002010BD00BFCC1800201E
:10242800D78A0A00012A01D1017016E0022A03D1D5
:102438000170090A417010E0032A05D10B0A0A0C41
:1024480001704370827008E0042A06D10B0A0A0C56
:102458000170090E43708270C170002070472DE929
:10246800F3414FF4FD720F4604463249324802F0F8
:102478003BF9009731482F49314B40F2FB1202F0EB
:1024880033F90025BD4205DA615D2E4802F02CF9CA
:102498000135F7E70A20FDF7CBFF2B4802F024F9B6
:1024A80004F101080A20FDF7C3FF02214046FFF7A7
:1024B80077FE07461F4925484FF4F2723B4602F063
:1024C80013F900252046FE1C031BB34203D210F863
:1024D800016F7540F7E70096184816491C4B40F203
:1024E800E91202F001F92746381BB04205D217F865
:1024F800011F144802F0F8F8F6E70A20FDF798FFE4
:10250800114802F0F1F80A20FDF792FF4FF4F57236
:102518002B4608490F4802F0E7F802214046FFF72A
:102528003FFE21180A79AA4214BF4FF0FF3000205D
:10253800BDE8FC81B68A0A00E48A0A009E8A0A007D
:10254800118B0A0056B10A00D48A0A00198B0A00B6
:10255800298B0A00328B0A002DE9F347424C884642
:1025680002A900272061064641F8047D2078E26030
:102578001546FDF735FF019BBB4270DD39464246E3
:10258800304602F0A7F8012060612046FFF798FE68
:102598006169884263D122691778022F5FD11318C5
:1025A8006800E060204623616761FFF789FE616982
:1025B8008842814614D1D4F810A039465046FFF716
:1025C800EFFD021D42454ADA606105FB00F00AEBA7
:1025D8000903B0F57A7F236107D94FF47A7004E0D4
:1025E8002248234940F2BF2237E0E0601E4C2046D3
:1025F800FFF766FE616988420CD12269E56013180D
:102608000120606120462361FFF75AFE6169884214
:1026180010D104E01548164940F2CE221DE0236986
:102628001A78032A04D01148114940F2D72214E03D
:10263800181820610C4C012120466161E560FFF704
:102648003FFE6369984204D1226910182061801BFB
:1026580007E0064806494FF4397202F045F84FF092
:10266800FF30BDE8FC8700BFCC180020438B0A0070
:10267800B68A0A000FB400B50E4B93F84900ADF5C1
:10268800037D80B185AA8499019202A802F051F8CD
:10269800011E06DB08200DEB0002FDF783FE00207B
:1026A80001E04FF0FF300DF5037D5DF804EB04B059
:1026B800704700BF0C1A0020F7B5254D8379AB731E
:1026C8000446B0F80300A5F80F000E462148E97B40
:1026D800FFF7D0FF297C1F48FFF7CCFF2046314683
:1026E800FFF7BDFE70B11C48FFF7C4FF40F25B3234
:1026F80000921A491A481B4B01F0F6FF00200146C8
:10270800194A19E0E5780346164A02F11001475CB8
:10271800AF4216D10F1821797F788F4211D10C253D
:1027280005FB03222046556992693146A8471230B5
:102738000CD100200D4A0146FFF7D9FD4FF0FF30BC
:1027480005E001330C30052BDED1F2E70020FEBD99
:102758000C1A0020958B0A00508B0A00B68A0A00D2
:102768005A8B0A00C8300A0028D00A001DCD0A007A
:1027780037B500230193044610B94FF0FF3011E03C
:1027880000690028F9D0207801A9FDF729FE019BEE
:10279800054623B1044822782946FFF76BFF002D30
:1027A800EBD101983EBD00BF7A8B0A000320704729
:1027B8000720704701300221FFF7F2BC014B18785F
:1027C800FDF7DABDCC180020024B198801800020E3
:1027D800704700BF1B1A00206FF01100704700B54A
:1027E800ABB00021882208A801F074FF0021202244
:1027F800684601F06FFF10220123312102A80192DF
:102808008DF8033001F066FF684608A9FEF7C0FAA4
:102818002BB000BDF8B50F46154915461E46FDF705
:10282800F3FE041E20DB29460022FDF715FF0546AE
:1028380048B129460F48FFF71DFF2046FDF7EEFE79
:102848006FF00100F8BD204639463246FDF7FAFE22
:10285800B042204604D0FDF7E1FE6FF00200F8BD5B
:10286800FDF7DCFE2846F8BD4FF0FF30F8BD00BF8D
:10287800038A0A009B8B0A002DE9F04105460F46A2
:102888000846904600211A461E4601F023FF2846B6
:10289800FDF700FF044618B11B48FFF7EBFE2FE0D9
:1028A80028461A49FDF7B0FE051E05DA1848FFF755
:1028B800E1FE4FF0FF3423E022464146FDF7CCFE0F
:1028C800044648B121461348FFF7D4FE2846FDF7D1
:1028D800A5FE6FF0010413E0394628463246FDF79D
:1028E800A7FEB042014608D00B48FFF7C3FE2846B2
:1028F800FDF794FE6FF0020402E02846FDF78EFE15
:102908002046BDE8F08100BFA98B0A000CE00A0050
:10291800BD8B0A009B8B0A00C78B0A002DE9F04388
:10292800BFB0FEF7A1FE5248FDF70AFC0120FDF7F3
:1029380073FC42F21075FDF799FD022400238DE81F
:102948002800029413A80121032206ABFDF7ECFC32
:10295800059010B113A8474909E013A801F09EFE9D
:1029680000F1FF33FD2B80460BD9434913A801F032
:102978000EFFFEF779FE13A8FDF7E2FB0220002107
:102988006FE0FEF771FE3D48FDF7DAFB01272021D5
:1029980002940097019513A80A4606ABFDF7C4FCFC
:1029A800069E0590202E0446D4D10028D2D107AD2A
:1029B8004FF0100921464A46284601F08BFE2B4667
:1029C8003146224613A8FEF701FB324621460BA8E2
:1029D80001F080FE214688221CA801F07BFE95E8C4
:1029E8000F000DAE86E80F008DF82D708DF82F8042
:1029F800CDF830908DF82C700C98844207DA0BAA29
:102A080013191F48197AFFF735FE0134F4E70BA8AC
:102A18001CA9FEF7BDF90446059050B13EACFEF77F
:102A280023FE54F8E41D1748FDF78AFB02202146CF
:102A380017E0FEF719FE1448FDF782FB2421204613
:102A4800FEF7FEFC1148FDF77BFB204604A9FDF7C5
:102A580039FC00287FF465AF04991B297FF461AF26
:102A680001E0FDF72FFC00203FB0BDE8F08300BF78
:102A7800D58B0A00E88B0A00FD8B0A000E8C0A0031
:102A8800958B0A001D8C0A00328C0A00438C0A00C0
:102A980038B52748274CFFF7EDFD274B94F87311FD
:102AA8001A685868226060606172FFF798FE4FF4F8
:102AB8009670052313221E25E0812049638104F1C5
:102AC8001E002282A58101F062FE1C4904F13E002D
:102AD80001F05DFE1A4904F12E0001F058FEFF21B5
:102AE80084F84E1004F16A00164901F050FE1125D1
:102AF8001548164984F86950FDF786FD051E02DA67
:102B08004FF0FF3038BD00210A46FDF7A5FD00282B
:102B1800F6DB21464FF494722846FDF793FD0446F0
:102B28002846FDF77BFDB4F5947FE9D1002038BD38
:102B3800598C0A00E4180020698C0A00728C0A007B
:102B4800798C0A00808C0A00858C0A00038A0A00A6
:102B580030B533483349C1B0FDF756FD041E5BDB81
:102B680000210A46FDF778FD002852DB2046694619
:102B78004FF48072FDF75CFDB0F5807F49D10021EC
:102B880020460A46FDF768FD002842DB264D002155
:102B98004FF49472284601F09DFD244B9DF80110D6
:102BA8001A6858682A60686009B9012300E002239E
:102BB800BDF8FC206B720AB94FF46172BDF8FA00D7
:102BC800AA81194D00B93C2068811949194801F0BA
:102BD800DEFD1749184801F0DAFD1849184801F0D8
:102BE800D6FDFF2185F84E101648174901F0CFFD94
:102BF800112320460C4985F869304FF49472FDF78B
:102C080021FDB0F5947F04D12046FDF707FD002093
:102C180004E02046FDF702FD4FF0FF3041B030BD23
:102C2800858C0A00038A0A00E4180020698C0A00CF
:102C3800728C0A000219002022190020798C0A00DF
:102C4800121900204E190020808C0A002DE9FF413E
:102C5800002338480093FDF71DFD054600285ED186
:102C68003548FFF707FD69463248FDF709FD314849
:102C78003249FDF7C9FC041E53DB29462A46FDF7F5
:102C8800EBFC00284DDB0A22204601A9FDF7D0FC09
:102C98000A2846D12A4F01A83946052201F002FD2B
:102CA800064698B12748FFF7E5FC2046FDF7B6FC35
:102CB8000099B1F5807F03D02348FFF7DBFC33E0B0
:102CC8002248FFF7D7FCFFF743FF2FE0DDF800802D
:102CD800B8F5947F25D1204631463246FDF7BCFC35
:102CE80000281EDB1A4D204629464246FDF7A0FC67
:102CF800B0F5947F15D12046FDF790FC284639465B
:102D0800082201F0CFFC88B138687968286013225E
:102D18004FF4967369602A82EB81304606E04FF0E3
:102D2800FF342046FDF77AFC4FF0FF3004B0BDE8D1
:102D3800F08100BF858C0A00978C0A00038A0A007C
:102D4800698C0A00AF8C0A00C38C0A00E18C0A0067
:102D5800E418002010B503785C1E2E2C18D9392BE6
:102D680016D84078441E2E2C12D9392810D80BB901
:102D780081B17AB138B11BB2DC0004EB4303C0184F
:102D8800A0F5047300E0303B8B4201DB934201DD88
:102D9800002010BD012010BD30B59FB0814909A8A1
:102DA80001F0F5FC804906A801F0F1FC7E4907A86E
:102DB80001F0EDFC15A8FDF7AFFBFEF755FC002070
:102DC80001467A4A0346FEF767FB189B1A9A199C34
:102DD8000093774902F26C72631C0DA801F0B8FCED
:102DE80000200C210DAA0346FEF756FB00201821EF
:102DF800704A0346FEF750FB002024216E4A034622
:102E0800FEF74AFB24210C20FEF71AFB00240120C0
:102E180002210290009401940BA80A4608ABFDF722
:102E280083FAA042C0F2BC800BA821462522FFF7F6
:102E380091FF0028E0D0BDF82C30322130258DF8E4
:102E480024108DF82550ADF826305C4909AA0DA844
:102E580001F07EFC002024210DAA0346FEF71CFB8E
:102E68002420002401250146FEF7EAFA02220094F4
:102E7800019402950BA8294608ABFDF755FAA04224
:102E8800C0F28E800BA829460C22FFF763FF0028AA
:102E9800DBD0089A2346013BDC4394420CD21EAC9B
:102EA8000BA8E1188418E05C01F85E0CF3E706A8AB
:102EB80001F0F4FB0C281DD9414909AA06AB0DA85D
:102EC80001F046FC002024210DAA0346FEF7E4FA8F
:102ED80024213C20FEF7B4FA01240022009201923A
:102EE800029402220BA8214608ABFDF71DFA002820
:102EF800DDDA55E004FA00F041F2AA51014029B99F
:102F080010F4256F06D1430708D4D5E70BA821464E
:102F18001F220EE00BA821461E220AE009A801F094
:102F2800BDFB10F0030F21460BA801D11D2200E0C4
:102F38001C22FFF70FFF0028BED0089A0025013D8C
:102F4800EB43934207AC05D20BA8811864194B5D7B
:102F5800A370F4E700941B4909AA06AB0DA801F079
:102F6800F7FB0020242103460DAAFEF795FA09A8CD
:102F780001F094FBA0F26C7206A81A9201F08EFB85
:102F880001381990204601F089FB19AD18900FCD32
:102F98006C460FC4296815AB21600FCBFDF7A2FA68
:102FA8001FB030BD78DA0A007ADA0A00F58C0A0018
:102FB800018D0A000A8D0A001B8D0A002A8D0A005D
:102FC800378D0A00448D0A0030B59FB015A8FDF76B
:102FD800A3FAFEF749FB6B4908A801F0D8FB694939
:102FE80009A801F0D4FB67490AA801F0D0FB00202A
:102FF8000146654A0346FEF74FFA159B634900935D
:10300800179A169B0DA801F0A3FB00200C210DAA0E
:103018000346FEF741FA002018215D4A0346FEF7F1
:103028003BFA002024215B4A0346FEF735FA2421A7
:103038000020FEF705FA00240121022200940194E1
:1030480002910BA807ABFDF76FF9A042C0F2988078
:103058000BA821461722FFF77DFE0028E1D0079B29
:1030680021460139CA439A4207D20BACE0181EAA7E
:103078005218445C02F8564CF3E7474908AA0DA8D1
:1030880001F066FB002024210DAA0346FEF704FA8E
:1030980024211220FEF7D4F90024012102220094F1
:1030A800019402910BA807ABFDF73EF9A04267DB3C
:1030B8000BA821463B22FFF74DFE0028DDD0079BD9
:1030C80021460139C843984207D21EAC0BA86218A2
:1030D800C418605C02F8520CF3E7304908AA09AB3F
:1030E8000DA801F035FB002024210DAA0346FEF7A8
:1030F800D3F924200146FEF7A3F900240121022276
:103108000094019402910BA807ABFDF70DF9A042BA
:1031180036DB0BA821463B22FFF71CFE0028DCD03B
:1031280007992546013DEC438C420AAC05D20BA811
:10313800431864195A5DA270F4E70094184908AA64
:1031480009AB0DA801F004FB002024210DAA0346B9
:10315800FEF7A2F908A801F0A1FA179009A801F052
:103168009DFA1690204601F099FA19AD15900FCDE9
:103178006C460FC42B6815AA23600FCAFDF7B2F975
:103188001FB030BD7ADA0A00518D0A005B8D0A0043
:103198006B8D0A007C8D0A00868D0A00908D0A00CE
:1031A8009A8D0A0007B5FEF75FFA002001460E4A1D
:1031B8000346FEF771F900200C210C4A0346FEF77E
:1031C8006BF9002001A9FDF77DF8019B312B02D195
:1031D800FFF7E2FDE7E7322B02D1FFF7F5FEE2E762
:1031E8001B2BEED100200EBDA48D0A00AF8D0A0066
:1031F80013B5FEF739FA002001461C4A0346FEF7CC
:103208004BF900200C211A4A0346FEF745F9002025
:1032180018210346174AFEF73FF9002001A9FDF7D8
:1032280051F8019B312B0BD11349012281F87121EF
:1032380008200021FDF796F8002024210F4A0BE012
:10324800322B0CD10C48002480F871410820FDF77E
:1032580093F80B4A204624210346FEF71DF9012066
:103268000021FDF72FF800201CBD00BFBA8D0A0011
:10327800CE8D0A00D38D0A00E4180020D88D0A00EC
:10328800E18D0A0037B5FEF7EFF9002001462C4A18
:103298002C4C0346FEF700F900202B4A03460C216C
:1032A800FEF7FAF834214020FCF76EFF4021342065
:1032B800FCF7FAFE218A2548FCF742FF002001A905
:1032C800FDF700F80028DED1019B312B05D1228AB9
:1032D8003F2A09D8551C258206E0322B19D1208AAD
:1032E80008B1411E2182174C218A1948FFF7C2F9FB
:1032F800208A144CFCF798FF34214020FCF744FF47
:1033080040213420FCF7D0FE218A1048FCF718FF32
:10331800B9E710491048FDF777F921464FF4947240
:103328000546FDF78FF9B0F5947F04D0FEF79CF9B8
:103338000A48FCF705FF2846FDF770F900203EBD56
:10334800EA8D0A00E4180020F78D0A00048E0A00AE
:10335800128E0A00038A0A00858C0A00218E0A0050
:1033680073B5394B01A893F87661FDF71BF9FDF7A2
:1033780005F9FCF791FE354D00242435B4421ADADC
:103388003349242000FB0412043215F8240C15F8E4
:10339800231C0023FCF7A0FE0134EEE76846FCF787
:1033A800A5FF044601A8FDF7F3F8019842F2107250
:1033B800904241D804B3274C2748656B64224FF4E8
:1033C8000061A847051EE9DD2448FFF753F90024EA
:1033D800214E2348315D0134FFF74CF9AC42F7DB4D
:1033E8002048FFF747F901A8FDF7DCF8194A3046ED
:1033F8002946D36B98471FE0009B002BDBD01B2B83
:103408001AD0B44213DA24216143114D4A59934228
:1034180001EB05000ED1437F3B2B01D8FEF724F9C1
:10342800242101FB0455286A8047623009D0B44240
:103438009FD1C0E70134E4E701A8FDF7B3F8FCF732
:103448002BFE00207CBD00BFE4180020EC310A00F0
:10345800D0310A0014310A00601A0020308E0A00A8
:10346800958B0A00FFFF0A0073B5184B93F8776134
:10347800FEF7FAF8164D00242435B4421BDA154835
:1034880015F8231C242202FB04031A1D15F8240C2A
:103498000023FCF721FE0134EEE70134B44208DAD8
:1034A800242161430B4A881889588B42F5D1036A55
:1034B8009847B442DCD1002001A9FCF703FF019B27
:1034C8001B2B01D00024E9E700207CBDE418002074
:1034D800C8310A00AC310A0073B5184B93F878610B
:1034E800FEF7C2F8164D00242435B4421BDA1548FD
:1034F80015F8231C242202FB04031A1D15F8240CBA
:103508000023FCF7E9FD0134EEE70134B44208DAA0
:10351800242161430B4A881889588B42F5D1036AE4
:103528009847B442DCD1002001A9FCF7CBFE019BEF
:103538001B2B01D00024E9E700207CBDE418002003
:1035480080310A0064310A0030B5A1B006A905A887
:10355800FCF752FE17A8FCF7DFFF054600285CD1F0
:103568002F4B0699186CFCF79FFD2E4804682046DF
:1035780001F014F921462C4C02461420FDF7A8FF4F
:10358800617A02291ED107A829461E2201F0A2F855
:1035980094F84D3123B907A8244901F0F8F80AE056
:1035A800234801F0FBF80E288CBF22492249204A03
:1035B80007A801F0CDF807A801F0F0F807A902461E
:1035C80020200AE0042903D120201C490C2204E011
:1035D80001221B49627220200B22FDF779FF00218E
:1035E8001E220FA801F076F8189A179B1A981999B5
:1035F800029203931C9A1B9B009002F26C72019139
:10360800013310490FA801F0A3F80FA801F0C6F87C
:103618000FA902462C20FDF75BFF21B030BD00BF8B
:1036280014310A0038000020E41800203C8E0A00FB
:10363800311A00204E8E0A00568E0A00608E0A004B
:103648006D8E0A00798E0A0070B5254B8AB093F802
:10365800756193F876210023934206DA21492420E4
:1036680000FB0311487F3C280ED993420ED1FDF789
:10367800FBFF002001461C4A0346FDF70DFF022010
:103688000C21FDF7DDFE05E00133E5E700203F21D1
:10369800FCF77AFD01210A2203238DE80E0006A813
:1036A8000021082205ABFCF73FFE80B90446B4426E
:1036B8000DDA0E4A142505FB0425281D06A901F07C
:1036C80059F810B92969884701E00134EFE7FDF797
:1036D800CBFFFDF7A9FFFFF737FF00200AB070BD49
:1036E800E4180020D0310A00958E0A0018320A002A
:1036F80038B5FFF763F815481549FCF785FF041E30
:1037080005DAFDF7B1FF1348FCF71AFD1BE00021AD
:103718000A46FCF7A1FF104901234FF49472204692
:103728004B72FCF78FFF0546FDF79EFFB5F5947FBA
:103738000CBF0A480A48FCF703FD2046FCF76EFF59
:103748000120FEF755FE002038BD00BF858C0A0019
:10375800038A0A00A18E0A00E4180020AA8E0A0033
:10376800DBA50A0038B50B200021FCF7FBFD00F1B2
:103778001203012B03D9031D01D0063009D1FDF72F
:1037880073FF1A48FCF7DCFC01200021FCF79AFDC6
:1037980029E0FFF713F816481649FCF735FF041E11
:1037A80005DAFDF761FF1448FCF7CAFC1BE00021AD
:1037B8000A46FCF751FF1149042048724FF49472ED
:1037C8002046FCF73FFF0546FDF74EFFB5F5947F11
:1037D8000CBF0B480B48FCF7B3FC2046FCF71EFF58
:1037E8000120FEF705FE002038BD00BFB38E0A0099
:1037F800858C0A00038A0A00A18E0A00E4180020BA
:10380800AA8E0A00DBA50A0007B501A8FCF76EFD21
:1038180080B9019870B1A0F13003092B074901D98B
:10382800022802D1C1F8280106E04FF0FF32C1F8A2
:10383800282101E04FF0FF300EBD00BFE418002042
:10384800024BC3F830010020704700BFE418002085
:1038580010B592B00021402202A800F03BFF00F012
:1038680009FFFFF7F3F9002810DB022001A902AADB
:10387800FCF7C0FE0E2202A81149124C00F012FFFC
:1038880000280BDB208AFCF7CFFC07E00E48FCF78A
:10389800EDFEFFF7FDF80028E7D00CE0607AFEF7B0
:1038A800A7FD002803DA0948FEF7E4FE03E0FEF767
:1038B8003BFC002001E04FF0FF3012B010BD00BF0C
:1038C800BC8E0A00E4180020858C0A00CB8E0A0002
:1038D800032801D1022006E0042801D1012002E0DA
:1038E800052802D10420FDF745BC6FF01100704790
:1038F80037B52E4D00245422214605F594700094C6
:10390800019400F0E7FE21464FF49472284600F037
:10391800E1FEFCF7C1FB2648FCF712FCFFF798FF15
:10392800A04207DA2348FEF7A5FE03202146FCF74C
:10393800C9FC39E04FF4FA73C5F83031FCF7ACFB39
:103948001D48FCF7FDFB1D48FCF7FAFB1C481D4908
:10395800FCF7F6FB01A8FDF711FB019B33B11A49EF
:103968001A4840F29B5200F0BFFE1DE0184C19485F
:10397800636B4FF4006164229847011E0EDDE26B11
:1039880014489047FCF788FB0B48FCF7D9FB0B4819
:10399800FCF7D6FB0A480B49FCF7D2FB6846FCF754
:1039A800A5FC00981B28D5D13EBD00BFE418002017
:1039B800E48E0A00F38E0A000A8F0A001B8F0A00A1
:1039C80006A90A001F8F0A004A8F0A00318F0A00D1
:1039D80014310A00601A002013B5084C01902068C1
:1039E80028B90749FCF7BEFC30B901232360002041
:1039F800012101AAFCF7D6FC00201CBD6022002092
:103A0800D78A0A002DE9F04F0024ADF2145D8846EC
:103A1800914621464FF4A06204A81E46039400F084
:103A280059FE2046FCF7BEFDFCF7A8FD664F674C23
:103A38007B6B64224FF4006120469847054603A833
:103A4800FCF7A6FD039848450BDD03A8FCF7AAFD83
:103A58005F48604940F27A2200F046FE6FF00900A4
:103A6800ADE0002DE2DD5B495B484FF4207200F0C9
:103A78003BFE5A49A279B4F803308A73A1F80F3093
:103A88003A69294620469047054648B103A8FCF7FD
:103A980089FD50494E4840F2862200F025FE18E084
:103AA800E0781E28C2D121790129BFD1FF6AFEF72B
:103AB8007FFE02212018B847B0F5806F04460BDD61
:103AC8004348444940F2912200F00EFE03A8FCF757
:103AD80069FD4FF0FF3072E0C0F1000909F00709F5
:103AE80000EB090700973E483A493E4B4FF42672CF
:103AF80000F0FAFDBD420ADAFEF75AFE334B5A19B6
:103B080011183948897800F0EFFD0135F2E70A20ED
:103B1800FCF78EFC3548DFF8B4B000F0E5FD0A206C
:103B2800FCF786FCFEF744FE0DF1100A851C012304
:103B380001930BEB0502CDF800A0042000213B46C1
:103B4800FDF768F9054620B12148224940F29D2237
:103B5800BAE7FEF72DFE221891440BF1020B19F873
:103B68000B00032804D01A481A4940F2A222ABE7F6
:103B780022465146404600F0A4FD346003A8FCF7F5
:103B880011FD3468164800941249194B40F2AA22D4
:103B980000F0AAFD2C4631688C4206DA18F80410A9
:103BA800114800F0A1FD0134F5E70A20FCF740FCBC
:103BB8000E4800F099FD0A20FCF73AFC002045B0B9
:103BC8000DF5806DBDE8F08F14310A00601A0020F1
:103BD800598F0A006B8F0A007B8F0A000C1A00208D
:103BE8009E8A0A00A28F0A0056B10A00D48A0A00E7
:103BF800B38F0A002DE9F047ADF6587D0C461546FF
:103C08004F424FF4A062002116A800F063FD002186
:103C18004FF4A0620DF5AB6000F05CFD00214FF49D
:103C2800A0620DF6582000F055FD0021402206A89C
:103C380000F050FD2946224616A800F042FD7549BD
:103C480075484FF4097200F04FFD009473487149AC
:103C5800734B40F2252200F047FD07F007072E19A5
:103C6800B54205D015F8011B6E4800F03DFDF7E799
:103C78000A20FCF7DDFB6C4800F036FD0A20FCF753
:103C8800D7FB032003A906AAFCF7B4FC804610B1B1
:103C98004FF0FF30B8E003990029F9D0634BDFF803
:103CA800A0A11E6B02220DF65820B047039D0DF609
:103CB80058202A4606A9023000F003FDA91C0DF67B
:103CC80058225018DAF800100222B047514605F180
:103CD800040951F8045B0DF6582303EB09002A4642
:103CE80000F0EFFC3F190DF5AB638DE808010420E7
:103CF800414616AA3B46FDF78DF8A944054600281B
:103D0800C6D1009745484349494B4FF4107200F01B
:103D1800EBFCBD4207D00DF5AB624248515D00F0A7
:103D2800E3FC0135F5E70A20FCF782FB3E4800F08A
:103D3800DBFC0DF658270A20FCF77AFB07EB090095
:103D48002146022209F10209B0470DF658242A46F5
:103D58004D4404EB09000DF5AB616E4200F0B1FC77
:103D680006F007002F18012104AE009100200DF67F
:103D780058213A463346FDF733F80446002887D1E0
:103D88000097264823492B4B40F24D2200F0ACFC0B
:103D9800BC4207DA0DF658212248095D00F0A4FC60
:103DA8000134F5E70A20FCF743FB1F4800F09CFCB0
:103DB8000A20FCF73DFB08220092184815491E4BC3
:103DC80040F24E2200F090FC0024315D1548013489
:103DD80000F08AFC082CF8D10A20FCF729FB1248CD
:103DE80000F082FC0A20FCF723FB334603CB0DF6D8
:103DF800582254190D4B50519B6B6160104605F1C8
:103E080008010E4A984700200DF5567D0DF5406DC6
:103E1800BDE8F0876B8F0A00C38F0A009E8A0A00EC
:103E2800B38F0A0056B10A00D48A0A0014310A0076
:103E3800A28F0A00E58F0A00EF8F0A007ADA0A00DB
:103E48006422002070B59AB00446FCF725F93A4878
:103E5800FCF776F9FEF7ACFC255C012D06D0294667
:103E68003648FEF707FC43F2311118E00021202202
:103E780002A800F02FFC032001A902AAFCF7BAFB54
:103E8800044608B9019B6BB9FCF706F92C48FCF706
:103E980057F900210220FCF715FA43F23121ADF859
:103EA80000103DE010202749FCF740FF064688B186
:103EB800FCF7F2F82448FCF743F921460220FCF706
:103EC80001FA224922487B22334600F00DFC43F2D6
:103ED8003131E4E71AAC022204F8405D1D4D019926
:103EE8002B6B601C9847019D202D19D802A92A46E2
:103EF800E01C00F0E6FB1AA8E91C124B4218403AF5
:103F080003F1100053F8044B834242F8044BF9D1F3
:103F1800104B114A9B6B0AA810319847022206E001
:103F28000C4B00206A4601469B6B984701220B48C0
:103F3800026000201AB070BDFA8F0A000D900A00C6
:103F480018900A008822002029900A006B8F0A0026
:103F58003B900A0014310A007ADA0A0004000020B3
:103F680070B5ACB00446FCF797F87848FCF7E8F869
:103F7800774B1868022809D0FCF78EF87548FCF7CB
:103F8800DFF802200021FCF79DF908E0FEF710FC9D
:103F9800215C0229029105D06F48FEF76BFB43F2C2
:103FA800311290E0FEF704FC21184B1C04AD01F11E
:103FB8001106186859682A4603C20833B3421546E1
:103FC800F7D1FEF7F5FB241804F111030CAD04F149
:103FD8002104186859682A4603C20833A3421546C3
:103FE800F7D10021202214A800F074FB032003A9B4
:103FF80014AAFCF7FFFA044608B9039858B9FCF765
:104008004BF85648FCF79CF802200021FCF75AF9B7
:1040180043F2312257E0012108AE019100960420B5
:10402800FF2104AA1023FCF7F5FE054688B1FCF72A
:1040380033F84B48FCF784F8E6224A494A482B46AD
:1040480000F052FB02202146FCF73CF943F23142D2
:1040580039E046483146102200F024FB044658B1A6
:10406800FCF71AF84248FCF76BF802202946FCF7DF
:1040780029F943F2316226E010AD01900095042041
:10408800FF210CAA1023FCF7C5FE064658B1FCF721
:1040980003F83848FCF754F802202146FCF712F9D7
:1040A80043F231520FE010203349FCF73FFEA0B134
:1040B800FBF7F2FF3148FCF743F802203146FCF7E2
:1040C80001F943F231322E4BADF870200020014641
:1040D8001CAA9B6B9847012132E02CAC9DF8086024
:1040E800274B04F8406D03991E6B601C0222B047F1
:1040F800039EE01C324614A900F0E3FAF21C2CA837
:104108008418403C05F110062B4603CB2060616003
:104118000834B3421D46F7D12CA9174B89183039FA
:1041280003F1100053F8044B834241F8044BF9D1D2
:10413800134B02F120011CA8124A9B6B98470321DC
:104148000348016000202CB070BD00BF4D900A00EC
:104158000400002060900A000D900A0018900A00E0
:104168006D900A006B8F0A003B900A00882200209D
:104178007F900A0091900A0098220020A3900A00DC
:1041880014310A007ADA0A002DE9F04F824BD5B0D3
:1041980004461888ADF80C00FBF77EFF7F48FBF754
:1041A800CFFF7F490A68032A0BD0FBF775FF7D48CC
:1041B800FBF7C6FF02200021FCF784F843F2311315
:1041C800A4E0FEF7F5FA235C032B049308D07648A5
:1041D80076494FF4AB7200F087FA43F2302395E04A
:1041E800FEF7E6FA2618731C05A806F1110605461F
:1041F8005968186803C50833B3422846F7D1DFF871
:10420800C481D8F82C60FEF7D3FA113002212018A7
:10421800B0471828054600F2B180FEF7C9FA00F148
:10422800130161182A460EA800F04BFAFEF7C0FAEF
:1042380005F1130283180221E018B0471828064632
:1042480000F29C80FEF7B4FA05F11507C119611850
:10425800324614A809AF012400F033FA00970194FC
:104268000420FF2105AA1023FCF7D4FD824658B18B
:10427800FBF712FF4E48FBF763FF02200021FCF713
:1042880021F843F2314341E0DFF83C91384609F127
:104298003401102200F006FA074658B1FBF7FCFE7D
:1042A8004448FBF74DFF02205146FCF70BF843F258
:1042B80031632BE0394620221AA800F00BFA0DF1E1
:1042C800700A3946882232A800F004FA2A460EA954
:1042D80050461B954FF0FF0B00F0F3F904251AA880
:1042E80032A98DF869508DF86AB08DF86840FCF7EE
:1042F8004FFD054668B1FBF7CFFE2F48FBF720FFBF
:1043080002203946FBF7DEFF43F23173ADF80C307B
:1043180034E0294620221AA800F0DCF92946882230
:1043280032A800F0D7F9324614A950461B9600F07F
:10433800C8F903261AA832A98DF869608DF86AB001
:104348008DF86840FCF724FD064638B1FBF7A4FE5B
:104358001A48FBF7F5FE02202946D3E79DF81020FE
:10436800D8F8385054A8214600F8C82D144AA84750
:104378000B48C9F84440046030460AE0114B00205D
:10438800014603AA9B6B9847054A012111604FF02B
:10439800FF3055B0BDE8F08F60310A00B5900A00D3
:1043A8000400002060900A00C8900A006B8F0A0081
:1043B800DB900A00ED900A00FF900A0014910A00B1
:1043C8007ADA0A0014310A0064220020F0B5174E88
:1043D800174D89B00746FBF75FFE1648FBF7B0FE9E
:1043E800F46AFEF7E5F902213818A0473346044677
:1043F80088B120280FD8FEF7DBF9811C79182246EE
:10440800281D00F05EF92C60B36B0B4A684600214A
:104418009847002007E0002028609B6B074A014668
:1044280098474FF0FF3009B0F0BD00BF14310A00C3
:10443800642200202B910A007ADA0A00C88E0A004A
:1044480070B51C4C636C012B07D0FBF725FE1A488E
:10445800FBF776FE0220002108E025685DB9FBF72E
:104468001BFE1648FBF76CFE02202946FBF72AFFC5
:104478004FF0FF3411E0124E211D2A4606F10800C4
:10448800756000F01EF90820FBF7A0FF301D06F04C
:1044980025FB00206064206004460A4902230B744F
:1044A800094B1E220020CA739B6B084A0146984795
:1044B800204670BD6422002043910A005A910A00E8
:1044C800040000200C1A002014310A007ADA0A00CD
:1044D80030B500258BB045BBFDF7C6F8032001A910
:1044E80002AAFCF787F838B9019B002B04DD02A962
:1044F8002048FBF725FE02E01F48FBF721FE0420B9
:104508000DEB000102AAFCF775F838B901980028EC
:1045180004DD02A91948FBF713FE02E01848FBF76F
:104528000FFE18491848096807E0FDF79DF8174974
:1045380002A800F02CF9164802A9FBF701FE002496
:104548006420FBF775FF6846FBF7D0FE50B9009A68
:1045580042B11B2A09D00D2A01D00446F0E785F0A4
:104568000105B8E70134642CEADD6FF061000BB097
:1045780030BD00BF72910A0079910A008A910A0041
:1045880091910A0034000020A5910A00B5910A0013
:10459800CD910A0030B593B000212022054602A82B
:1045A80000F098F8002120220AA800F093F801A949
:1045B8000AAA0020FCF71EF80AA811490C2200F0EC
:1045C80071F808B98DF82C00032001A902AAFCF79C
:1045D80011F8044680B9019B052B0DD912A9CA18F8
:1045E800063B02F8400C284602AD06490AAAEB1819
:1045F80000F0AEF8204601E04FF0FF3013B030BDB8
:10460800D9910A00E6910A0070B56828A4B00D4651
:10461800164618D1164801A9FCF732F8044620BB03
:1046280022461348019B02A9FEF726F9044628B939
:1046380002A801992246334600F07AFF019B581CD4
:104648004108296011E06B280CD101240C608822F4
:10465800002102A800F03EF82046214602AAFCF7F5
:1046680083FB01E0FBF7C6FF0446204624B070BD7B
:10467800EE910A00084B01220220052183F84B2005
:1046880083F84C2083F84D1083F84E0083F84F20B0
:1046980083F85000704700BF0C1A002000210A223E
:1046A80000F084B830B50023934208D0C55C0133CC
:1046B800CC1814F8014CA542F6D0281B30BD0020B8
:1046C80030BD10B50023934203D0CC5CC4540133F1
:1046D800F9E710BD82180346934202D003F8011B84
:1046E800FAE77047FFF778B90FB407B504A9054A88
:1046F80051F8040B0023019100F0D6F8BDE80E40F4
:1047080004B07047ED46060010B5044614F8010BD6
:1047180048B10A2802D10D20FFF75EF914F8010C00
:10472800FFF75AF9F2E710BD0B6803F8010B0B60AD
:10473800704707B502AB43F8040D08461146034A13
:1047480000F0B2F8019B00221A700EBD3147060036
:104758000FB407B50598064A06A904AB019100F005
:10476800A3F8049B00221A70BDE80E4004B07047FD
:104778003147060010B5013810F8013F0A461BB151
:10478800147801319C42F7D01178581A10BD0023D3
:10479800CA5CC2540133002AFAD1704703461A464C
:1047A800013311780029FAD1101A70472DE9F04722
:1047B800074610F8013B3B4DEE5C06F02005EEB2D3
:1047C8000446002EF5D12D2B03D114F8013B012608
:1047D80003E02B2B08BF14F8013B002A5BD0102AFA
:1047E80007D1302B05D12378782B4DD1637810224F
:1047F8000234002E0CBF6FF000404FF00040B0FBB9
:10480800F2F8002502FB18092846DFF898C01CF8C2
:1048180003C00CF0040A5FFA8AFABAF1000F01D05B
:10482800303B0BE01CF0030F1BD01CF0010F0CBF3A
:104838004FF0570C4FF0370CCCEB0303934210DAD0
:10484800B5F1FF3F0AD0404506D801D14B4503DCFE
:1048580002FB0030012501E04FF0FF3514F8013B61
:10486800D3E76B1C08D1002E14BF4FF000406FF047
:10487800004029B9BDE8F08706B1404279B105B1D9
:10488800671E0F60BDE8F087582BAFD03023002A91
:10489800AFD10822ADE7302BA5D00A22A9E7BDE8A1
:1048A800F08700BF90320A002DE9F04F9B4693B085
:1048B800A74B91460D4680460593002798F800407F
:1048C800002C00F0F681252C10D00A2C03D02046AD
:1048D8005946C84706E00D205946C847204659465C
:1048E800C8470137013708F10108E7E700260296B3
:1048F8004FF0FF3C344698F80100582808F10103AE
:1049080000F011813BD8392827D8312880F08F80D2
:104918002B2801D106460CE017D8232857D00AD9EE
:104928002A2840F0B8812A1D2D68002D029551DBF8
:1049380015469846DFE7002800F0BB81202840F0A4
:10494800AA81002E08BF2026F3E72E2848D0302859
:104958006AD02D2840F09F813FE04C287FD005D8B1
:10496800442840F0988144F0010487E04F2800F083
:104978009F80552840F08F8144F00104C7E06E28DD
:1049880000F0898010D868286CD005D863286CD0CE
:10499800642840F0808171E069286FD06C2840F06D
:1049A8007A8144F00104C4E7732800F0908007D8A6
:1049B8006F287FD0702840F06E8129680435C2E0E6
:1049C800752800F0A480782840F06581ADE044F0B7
:1049D8000804AEE768420290154644F01004A8E7C0
:1049E80098F802202A2A08F1020301D0002211E0D7
:1049F8002A68043515E0DFF864C11CF8018008F066
:104A0800040C5FFA8CF8B8F1000F09D030390A208D
:104A180000FB0212184613F8011B11F0800FEAD0B0
:104A2800431E42EAE27C84E744F0200481E74146E1
:104A380000224B1C49780A20303900FB02125878B2
:104A4800010601D5029274E7DFF8108118F800001A
:104A580000F00400C0B219460028EAD1F2E744F099
:104A6800020466E744F0040463E72E1D0DF1480ACA
:104A78002D6801230AF8205D039314E1296814F0D6
:104A8800040F18BF09B205F10402002915465CDAC3
:104A980049422D2659E014F0010F286805F1040356
:104AA80003D1610701D5078000E007601D46F5E0E6
:104AB80044F0010414F0040605F10400296803D049
:104AC80009B20546002600E0054608204AE02E1DEA
:104AD8002968204D002914BF8A46AA46BCF1000F58
:104AE800504610DB62460021CDF804C000F0E8F81B
:104AF800DDF804C0002800F0D480CAEB000060454F
:104B0800A8BF604601E0FFF749FE0390CBE014F030
:104B1800040605F10403296803D009B21D460026DE
:104B280013E01D4611E00C4E0596296814F0040F99
:104B380005F1040218BF09B214F00806154610D092
:104B480071B144F0400400260BE00A200AE000BFDF
:104B580013920A0024920A002B920A0090320A004B
:104B68000E461020BCF1000FA8BF24F0200411B994
:104B7800BCF1000F1DD00DF14702B1FBF0F39246D6
:104B880000FB1311059A0393535C03998AF80030CC
:104B98000AF1FF320029F0D114F0080F51460BD06A
:104BA800082809D1302B07D03020924601F8010C93
:104BB80002E00DF1480A01E0404B059312AACAEB46
:104BC8000201039126B14B1C0493CDF81CC003E0ED
:104BD8000398CDF81CC0049014F04002089202D04B
:104BE8000499881C0490049A079B9A42B8BF1A46F5
:104BF80014F030010692099104D08EB1304659461E
:104C0800C8470DE002980028F7D0069A029B9A42FE
:104C1800F3DA594620200192C84701994A1CF5E762
:104C2800089E36B130205946C84798F801005946C1
:104C3800C847099A202A01D1069E01E0049E07E090
:104C480002998E42FADA30205946C8470136F7E70A
:104C58000798864204DA30205946C8470136F7E7F4
:104C6800039E013E04D41AF8010B5946C847F8E7D9
:104C7800E30601D5069C06E0069C029A9442ACBF66
:104C88003F19BF180AE0029B9C42F5DA20205946DA
:104C9800C8470134F7E75946C847013708F1020801
:104CA8000CE6CDF80CC0039A354600260492079608
:104CB80092E7384613B0BDE8F08F00BF13920A00A0
:104CC80010F8013B8B42FBD10138704703461A4666
:104CD800013311783029FAD00023D15CC154013353
:104CE8000029FAD1017811B9302202704170704759
:104CF80010B520B31AB313B3007901280AD10A24D6
:104D080091FBF4F004FB101101EB0011104600F8C0
:104D1800011B12E002280FD1642491FBF4F004FB7C
:104D280010110A24107091FBF4F004FB101101EB30
:104D380000105070901C00E01046821A1A6010BDD6
:104D4800F0B510B30AB303B305791DB9046814604C
:104D58000C4618E00C786FF00506270906FB074497
:104D6800022D146001D04C1C08E04D782F0906FB79
:104D78000755642606FB045414608C1C00681568EB
:104D88008542C8BF1060611A1960F0BD2DE9F04175
:104D9800F8B1F1B1EAB1E3B193F9000000240028B9
:104DA800ACBF082010201E5D4FEAC408002501EBA7
:104DB80008074FEAD61C07F805C001357600082D0C
:104DC800F6B2F4D101348442EDDBC3001360BDE8D0
:104DD800F0814FF0FF30BDE8F0812DE9F3410F4637
:104DE80016461C46A0B199B192B18BB10A4B214627
:104DF8005D686A4601ABA8479DE82001384604EB88
:104E080008012A46FFF75DFC356008EB050001E064
:104E18004FF0FF30BDE8FC813C0000202DE9F34154
:104E28000D4616461F4608B301B3FAB1F3B1114B4C
:104E380039465C686A4601ABA0479DE810012846E0
:104E480007EB08012246FFF73CFC34600023A3422D
:104E580009DAEA5C0849885C10F0970201D13260EF
:104E680004E00133F3E708EB040001E04FF0FF3002
:104E7800BDE8FC813C00002090320A002DE9F84F83
:104E88008A461F469DF828900546002838D00029F4
:104E980036D0002B34D00179036811B19A42B8BFDB
:104EA800134603EB09089045B4BF46461646B9F1C8
:104EB800010F06D19AF8002098463A70013E4C46F8
:104EC80000E00024A888B0F5807F07D1C6EB080B66
:104ED8003819A9795A46FFF7FDFB5C4438190AEBE3
:104EE80009013246FFF7EDFBA988A41951B9C6EBB1
:104EF80008063819A9793246FFF7ECFBA41901E036
:104F08004FF0FF342046BDE8F88FF0B50D46ADF2FE
:104F1800144D1C460746B0B1A9B1A3B100230093B4
:104F280004ABFFF7ABFF05460A4829460668224648
:104F3800384603ABB047039E04A9A0192A46FFF7D9
:104F4800C0FB701901E04FF0FF3005B00DF5806D22
:104F5800F0BD00BF3C0000202DE9FF410F469846F8
:104F680010B309B303B3D410684610220021FFF729
:104F7800B1FB0022A24211DA07EBC203802600250A
:104F8800595D29B11DF8020046EA00010DF802102A
:104F980001357608082DF3D10132EBE74046694622
:104FA8002246FFF78EFB01E04FF0FF34204604B0A5
:104FB800BDE8F08110B50446D8B1FFF7EFFB002338
:104FC8001A46824211D0A15C202905D0092903D0B4
:104FD8005C2905D0002010BD002B08BF012302E08A
:104FE800002BF7D001330132EBE7023B584258411E
:104FF80010BD4FF0FF3010BD13B50346144670B115
:10500800052A0CDC59186846FFF75BFB02A804194F
:10501800002104F8081C6846FFF740FB01E04FF048
:10502800FF301CBD13B502A9002341F8043D044616
:105038000093FBF743FB014610B14FF0FF3013E03C
:1050480020460222FBF708FB0028F6D120466946D5
:10505800FBF734FB02460028EFD120460199FBF705
:10506800FBFA0028E9D100981CBDF0B5ADF2144D4B
:105078001D460023009304AB0746FFF7FFFE0446D6
:105088000848214606682A46384603ABB047039EBF
:1050980004A9A8192246FFF714FB301905B00DF52D
:1050A800806DF0BD3C00002070B580B179B173B15E
:1050B8000024944207DA0D5D064E755D15F0970FD2
:1050C80005D00134F5E7BDE87040FFF7CEBF4FF0DB
:1050D800FF3070BD90320A00F0B50746ADF2044DBE
:1050E80014461E4613B94FF0FF301DE00029FADDC3
:1050F8000139514327310022FBF7AEFA0546002853
:10510800F1D129464FF480626846FFF7E3FA224658
:1051180038466946FBF78CFAA0420246E3D130468E
:105128006946FFF7CEFA284601B00DF5806DF0BD4F
:105138002DE9F041ADF5007D0E4617468046FFF794
:105148002DFB04463046FFF729FB8442054602DA68
:105158002546044602E04046B04606460021684619
:105168004FF40072FFF7B6FA002108EB050006EBD2
:10517800040E0B46AB4216DA10F801CD1EF8012DCD
:10518800603961445218D2B24FF00A0CB2FBFCF8F5
:10519800092A0CFB182294BF0021012130320DF896
:1051A80003200133E6E7A54225EAE57304D101B3FC
:1051B80031210DF803101CE0E21AB01810F8012C88
:1051C800303A8918C9B20A22B1FBF2F002FB101179
:1051D80030310DF80310002101315A18A24208DAC3
:1051E80000A8C218E01A3018401A10F8010C5054E0
:1051F800F2E76846FFF7D2FA7A1E431E002B05DB5A
:105208001DF80310013B02F8011FF7E700233B5488
:105218000DF5007DBDE8F08110B50C4628B121B12F
:105228001AB1BDE81040FFF783BF10BD2DE9F0416A
:105238000C46A0B016460546002800F0C880002994
:1052480000F0C580002A00F0C28000211E226846B6
:10525800FFF740FA00211E2208A8FFF73BFA0021B9
:105268001E2210A8FFF736FA1E22002118A8FFF701
:1052780031FA29466846FFF78AFA214608A8FFF757
:1052880086FA6846FFF722FD08A8FFF71FFD684663
:10529800FFF784FA0446054608A8FFF77FFA844218
:1052A800014680460CD1684608A9FFF763FA071E35
:1052B8000BD14849304620B0BDE8F041FFF767BA46
:1052C800D8BF4FF0FF3718DC00E018DA69462A46E5
:1052D80010A8FFF7F6F908A942466846FFF7F1F962
:1052E80000211E2208A8FFF7F5F910A908A82A46E8
:1052F800FFF7E7F94446294602E0012700E0214686
:1053080000252B46C5F101028A421CDC00A80219BF
:105318000DF1200E50190EEB0102521910F8010C74
:1053280012F8012C801AC21A02D50A32012300E0B1
:1053380000230DF1600C0CEB04004019303200F82A
:10534800012C013DDEE721EAE1714A1C0025A24259
:105358001FDC0DF1000C601A0CEB000EAE441EF8B9
:1053680001CCC3EB0C03DBB22F2B07D90DF1600E78
:105378007044401900F8013C002307E00DF1600C6F
:10538800604440190A3300F8013C01230132013D11
:10539800DDE718A8FFF79AFC304618A9FFF7F7F9D8
:1053A800002F14DA00211E2210A8FFF793F92D23ED
:1053B80018A88DF84030FFF7F1F918A902460DF149
:1053C8004100FFF77EF9304610A9FFF7E0F920B059
:1053D800BDE8F08138E20A002DE9F0430C46B3B08D
:1053E80090468146002848D0002946D0002A44D05B
:1053F800FFF7D4F905462046FFF7D0F9854202DACF
:1054080027462E4602E04F460646A1460021642262
:105418006846FFF75FF968461949FFF7B8F9751E3E
:10542800002D26DB19F80540303C002C1FDD00213B
:1054380019A86422FFF74EF919A83946FFF7A7F90A
:10544800012C06D019A938460A46FFF7E5FE013CAB
:10545800F6E7731B9C4205DA19A809492FF070FD7D
:105468000134F6E7684619A96A46FFF761FE013D6F
:10547800D6E740466946FFF78AF933B0BDE8F083BE
:1054880038E20A0013B50446D8B1FFF787F90628B1
:1054980017D8002107226846FFF71CF920680090FA
:1054A800A3886846ADF804302FF046FD064B07493F
:1054B800421C9A42C8BF01222046FFF749F9002042
:1054C80001E04FF0FF301CBD3F420F003C920A0044
:1054D8002DE9F0410E461746804618B94FF0FF30C7
:1054E800BDE8F0810029F9D0002AF7D0FFF756F976
:1054F8003B688342F2DB00231C461D4685420EDAD8
:1055080018F80520A2F13001092904D92E2AE5D17D
:10551800013C013300E0325501350134EEE7012B3F
:10552800DCDC3046FFF73AF938600020BDE8F0814E
:1055380030B560B35BB3002929DDCC0704D5002A58
:105548000CBF5522002200E055220025445D602C46
:1055580001D9573C02E0402C02D9373CE4B205E0BF
:105568002F2C01D9303CF9E704F00F04552A05D057
:1055780044EA021403F8014B552200E022460135A3
:105588008D42E3D1552A05D01001187002E04FF082
:10559800FF3030BD002030BDF0B50D46ADF2144DE2
:1055A8001C46064608B301B3FBB10123009304ABC4
:1055B800FFF764FC0546104829460768224630462E
:1055C80003ABB84704A8039910F8012B6254727909
:1055D8004B1C691E0032039318BF0122E318FFF722
:1055E800A7FF039800EB650001E04FF0FF3005B01E
:1055F8000DF5806DF0BD00BF3C000020F0B5ADF2A8
:10560800144D1F4604AE0023009333460546FFF7AA
:1056180035FC0446104803ABD0F800C021462846A4
:105628003A46E047E30704D5697911B9AA793255B2
:1056380001346A79039B0032214618BF01223046A3
:10564800FB18FFF775FF0399601C01EB600005B0BC
:105658000DF5806DF0BD00BF3C00002070B580B135
:1056680079B173B10024944207DA0D5D064E755D79
:1056780015F0970F05D00134F5E7BDE87040FFF746
:10568800BDBF4FF0FF3070BD90320A0010B50A461A
:1056980010B94FF0FF340BE0002AFAD0002BF8D0F5
:1056A8000168104600224C10FFF742FF0028F0D195
:1056B800204610BDF0B538B333B311F0010403D060
:1056C8001AB10131012200E022461D4614468C42DF
:1056D80017DA14F0010FC2EB0306077804D007F0BD
:1056E8000F073755013001E03F09375515F8016BB1
:1056F800092E01D9373600E0303605F8016C01343F
:10570800E5E700202870F0BD4FF0FF30F0BDF7B599
:105718000E4615461C46074600B3F9B1F2B1EBB187
:10572800104B2146D3F804C06A4601ABE047019903
:105738003346625C03F8012B7A79481C00320190E9
:10574800009918BF01222018FFF7B4FF9DE809004F
:1057580019180130296003EB600001E04FF0FF30B9
:10576800FEBD00BF3C000020F7B50D4616461C469E
:10577800074638B331B32AB323B3144B2146D3F8C1
:1057880004C06A4601ABE0477A7901980099003273
:10579800204418BF01222B46FFF78CFF00980024F5
:1057A8003060844209DA295D094A535C13F0970195
:1057B80001D1316006E00134F3E7019B411C03EBA2
:1057C800610001E04FF0FF30FEBD00BF3C0000204B
:1057D80090320A00F8B50F461646044610B94FF045
:1057E800FF3510E00029FAD0002AF8D0002BF6D0B7
:1057F8000168002218463B464D10FFF75BFF002862
:10580800EDD1236833602846F8BD30B10B0E037024
:105818000A0C0B0A42708370C170704728B1B1F549
:10582800803F02D2417009120170704758B151B1DE
:105838004B780A781B0403EB02638A78C97803EB78
:1058480002235A180260704728B121B10A784B78B0
:1058580003EB02210160704770B505468CB00C4619
:1058680011B94FF0FF3046E001A9FAF727FF0021F0
:1058780028460A46FAF7F0FE06460028F1D1272204
:10588800314602A8FEF726FF2722284602A9FAF782
:10589800CFFE2728E5D1284601993246FAF7DCFEE3
:1058A8000028DED1204602A9FFF7CEFF201D0DF10A
:1058B8000A01FFF7C9FF04F1080003A9FFF7C4FFB5
:1058C80004F10C000DF10E01FFF7BEFF04A904F16D
:1058D8001000FFF7B9FF0DF1120304F115020DF1E5
:1058E8002E0153F8040B8B4242F8040BF9D19DF8B2
:1058F8002E30002023750CB070BD59B1632809D82B
:105908000A2290FBF2F302FB130040EA03120A702A
:10591800002070474FF0FF30704771B100F00F035F
:10592800092B0ADC0009092807D800B2C20002EBDB
:105938004000C3180B60002070474FF0FF307047DD
:105948002DE9F0410C4616460546C8B1C1B142F2F0
:105958000F739A4214D80868012811DD4FF06408C3
:1059680092FBF8F729463846FFF7C7FF691C08FB82
:105978001760FFF7C2FF022121600020BDE8F08117
:105988004FF0FF30BDE8F08137B50D46044610B939
:105998004FF0FF3014E00029FAD000786946FFF78D
:1059A800BCFF0130F4D0607801A9FFF7B6FF0130E1
:1059B800EED0019B009A642101FB02302860002090
:1059C8003EBD30B568B162B100290ADD002313700D
:1059D800C55C147801336C408B421470F8D10020F8
:1059E80030BD4FF0FF3030BD38B5044690B1FEF7FA
:1059F800D5FE0023834201DB1A4604E0E25C202A3C
:105A0800FAD10133F6E7824204DCA55CE11A8D5431
:105A18000132F8E738BD10B5044668B1FEF7BEFE9E
:105A28002018021B002A07DD10F8011C202903D1C9
:105A3800002300F8013DF4E710BD38B50446E8B18D
:105A4800FEF7ACFE2318002801DC00230CE013F855
:105A5800012C202AF9D10021013803F8011DF2E7B1
:105A6800E15C202902D101338342F9DB1A468242E4
:105A780004DCA55CE11A8D540132F8E738BDF8B5AD
:105A88000D4616461F46044600283FD0FEF786FE00
:105A9800A8423BDA012F15D0022F1FD0002F35D195
:105AA8002D1A002804DB225C61190A540138F8E732
:105AB8000023AB4204DAE6540133FAE70022225409
:105AC8000020F8BD0346E6540133AB42FBD1411C2C
